{
  "_format": "hh-sol-artifact-1",
  "contractName": "CoveredCall",
  "sourceName": "contracts/CoveredCall.sol",
  "abi": [
    {
      "inputs": [],
      "stateMutability": "nonpayable",
      "type": "constructor"
    },
    {
      "anonymous": false,
      "inputs": [
        {
          "indexed": true,
          "internalType": "address",
          "name": "owner",
          "type": "address"
        },
        {
          "indexed": true,
          "internalType": "address",
          "name": "approved",
          "type": "address"
        },
        {
          "indexed": true,
          "internalType": "uint256",
          "name": "tokenId",
          "type": "uint256"
        }
      ],
      "name": "Approval",
      "type": "event"
    },
    {
      "anonymous": false,
      "inputs": [
        {
          "indexed": true,
          "internalType": "address",
          "name": "owner",
          "type": "address"
        },
        {
          "indexed": true,
          "internalType": "address",
          "name": "operator",
          "type": "address"
        },
        {
          "indexed": false,
          "internalType": "bool",
          "name": "approved",
          "type": "bool"
        }
      ],
      "name": "ApprovalForAll",
      "type": "event"
    },
    {
      "anonymous": false,
      "inputs": [
        {
          "indexed": false,
          "internalType": "address",
          "name": "_nftAddress",
          "type": "address"
        },
        {
          "indexed": false,
          "internalType": "uint256",
          "name": "_nftID",
          "type": "uint256"
        },
        {
          "indexed": false,
          "internalType": "uint256",
          "name": "_strikePrice",
          "type": "uint256"
        },
        {
          "indexed": false,
          "internalType": "uint256",
          "name": "_expirationTime",
          "type": "uint256"
        },
        {
          "indexed": false,
          "internalType": "uint256",
          "name": "_premiumPrice",
          "type": "uint256"
        },
        {
          "indexed": false,
          "internalType": "uint256",
          "name": "_optionID",
          "type": "uint256"
        },
        {
          "indexed": false,
          "internalType": "address",
          "name": "_buyer",
          "type": "address"
        },
        {
          "indexed": false,
          "internalType": "address",
          "name": "_seller",
          "type": "address"
        },
        {
          "indexed": false,
          "internalType": "uint256",
          "name": "_creationTime",
          "type": "uint256"
        }
      ],
      "name": "CoveredCallCreated",
      "type": "event"
    },
    {
      "anonymous": false,
      "inputs": [
        {
          "indexed": false,
          "internalType": "address",
          "name": "_buyer",
          "type": "address"
        },
        {
          "indexed": false,
          "internalType": "address",
          "name": "_seller",
          "type": "address"
        },
        {
          "indexed": false,
          "internalType": "address",
          "name": "_nftAddress",
          "type": "address"
        },
        {
          "indexed": false,
          "internalType": "uint256",
          "name": "_nftID",
          "type": "uint256"
        },
        {
          "indexed": false,
          "internalType": "uint256",
          "name": "_premiumPrice",
          "type": "uint256"
        },
        {
          "indexed": false,
          "internalType": "uint256",
          "name": "_optionID",
          "type": "uint256"
        }
      ],
      "name": "OptionBought",
      "type": "event"
    },
    {
      "anonymous": false,
      "inputs": [
        {
          "indexed": false,
          "internalType": "uint256",
          "name": "_optionID",
          "type": "uint256"
        }
      ],
      "name": "OptionExecuted",
      "type": "event"
    },
    {
      "anonymous": false,
      "inputs": [
        {
          "indexed": true,
          "internalType": "address",
          "name": "from",
          "type": "address"
        },
        {
          "indexed": true,
          "internalType": "address",
          "name": "to",
          "type": "address"
        },
        {
          "indexed": true,
          "internalType": "uint256",
          "name": "tokenId",
          "type": "uint256"
        }
      ],
      "name": "Transfer",
      "type": "event"
    },
    {
      "inputs": [
        {
          "internalType": "address",
          "name": "to",
          "type": "address"
        },
        {
          "internalType": "uint256",
          "name": "tokenId",
          "type": "uint256"
        }
      ],
      "name": "approve",
      "outputs": [],
      "stateMutability": "nonpayable",
      "type": "function"
    },
    {
      "inputs": [
        {
          "internalType": "address",
          "name": "owner",
          "type": "address"
        }
      ],
      "name": "balanceOf",
      "outputs": [
        {
          "internalType": "uint256",
          "name": "",
          "type": "uint256"
        }
      ],
      "stateMutability": "view",
      "type": "function"
    },
    {
      "inputs": [
        {
          "internalType": "address",
          "name": "_nftAddress",
          "type": "address"
        },
        {
          "internalType": "uint256",
          "name": "_optionID",
          "type": "uint256"
        }
      ],
      "name": "buyCallOption",
      "outputs": [],
      "stateMutability": "payable",
      "type": "function"
    },
    {
      "inputs": [
        {
          "internalType": "address",
          "name": "_nftAddress",
          "type": "address"
        },
        {
          "internalType": "uint256",
          "name": "_nftID",
          "type": "uint256"
        },
        {
          "internalType": "uint256",
          "name": "_strikePrice",
          "type": "uint256"
        },
        {
          "internalType": "uint256",
          "name": "_expirationTime",
          "type": "uint256"
        },
        {
          "internalType": "uint256",
          "name": "_premiumPrice",
          "type": "uint256"
        }
      ],
      "name": "createCoveredCall",
      "outputs": [
        {
          "internalType": "uint256",
          "name": "",
          "type": "uint256"
        }
      ],
      "stateMutability": "nonpayable",
      "type": "function"
    },
    {
      "inputs": [
        {
          "internalType": "address",
          "name": "_nftAddress",
          "type": "address"
        },
        {
          "internalType": "uint256",
          "name": "_optionID",
          "type": "uint256"
        }
      ],
      "name": "executeCallOption",
      "outputs": [],
      "stateMutability": "payable",
      "type": "function"
    },
    {
      "inputs": [
        {
          "internalType": "uint256",
          "name": "tokenId",
          "type": "uint256"
        }
      ],
      "name": "getApproved",
      "outputs": [
        {
          "internalType": "address",
          "name": "",
          "type": "address"
        }
      ],
      "stateMutability": "view",
      "type": "function"
    },
    {
      "inputs": [
        {
          "internalType": "address",
          "name": "_nftAddress",
          "type": "address"
        },
        {
          "internalType": "uint256",
          "name": "_optionID",
          "type": "uint256"
        }
      ],
      "name": "getOption",
      "outputs": [
        {
          "internalType": "address",
          "name": "",
          "type": "address"
        },
        {
          "internalType": "uint256",
          "name": "",
          "type": "uint256"
        },
        {
          "internalType": "uint256",
          "name": "",
          "type": "uint256"
        },
        {
          "internalType": "uint256",
          "name": "",
          "type": "uint256"
        },
        {
          "internalType": "uint256",
          "name": "",
          "type": "uint256"
        },
        {
          "internalType": "address",
          "name": "",
          "type": "address"
        },
        {
          "internalType": "address",
          "name": "",
          "type": "address"
        }
      ],
      "stateMutability": "view",
      "type": "function"
    },
    {
      "inputs": [
        {
          "internalType": "address",
          "name": "owner",
          "type": "address"
        },
        {
          "internalType": "address",
          "name": "operator",
          "type": "address"
        }
      ],
      "name": "isApprovedForAll",
      "outputs": [
        {
          "internalType": "bool",
          "name": "",
          "type": "bool"
        }
      ],
      "stateMutability": "view",
      "type": "function"
    },
    {
      "inputs": [],
      "name": "name",
      "outputs": [
        {
          "internalType": "string",
          "name": "",
          "type": "string"
        }
      ],
      "stateMutability": "view",
      "type": "function"
    },
    {
      "inputs": [],
      "name": "optionID",
      "outputs": [
        {
          "internalType": "uint256",
          "name": "",
          "type": "uint256"
        }
      ],
      "stateMutability": "view",
      "type": "function"
    },
    {
      "inputs": [
        {
          "internalType": "address",
          "name": "",
          "type": "address"
        },
        {
          "internalType": "uint256",
          "name": "",
          "type": "uint256"
        }
      ],
      "name": "optionsCreatedByNFT",
      "outputs": [
        {
          "internalType": "address",
          "name": "buyer",
          "type": "address"
        },
        {
          "internalType": "address",
          "name": "seller",
          "type": "address"
        },
        {
          "internalType": "address",
          "name": "nftAddress",
          "type": "address"
        },
        {
          "internalType": "uint256",
          "name": "nftID",
          "type": "uint256"
        },
        {
          "internalType": "uint256",
          "name": "strikePrice",
          "type": "uint256"
        },
        {
          "internalType": "uint256",
          "name": "expirationTime",
          "type": "uint256"
        },
        {
          "internalType": "uint256",
          "name": "premiumPrice",
          "type": "uint256"
        },
        {
          "internalType": "bool",
          "name": "executed",
          "type": "bool"
        }
      ],
      "stateMutability": "view",
      "type": "function"
    },
    {
      "inputs": [
        {
          "internalType": "address",
          "name": "",
          "type": "address"
        },
        {
          "internalType": "uint256",
          "name": "",
          "type": "uint256"
        }
      ],
      "name": "optionsCreatedByUser",
      "outputs": [
        {
          "internalType": "address",
          "name": "buyer",
          "type": "address"
        },
        {
          "internalType": "address",
          "name": "seller",
          "type": "address"
        },
        {
          "internalType": "address",
          "name": "nftAddress",
          "type": "address"
        },
        {
          "internalType": "uint256",
          "name": "nftID",
          "type": "uint256"
        },
        {
          "internalType": "uint256",
          "name": "strikePrice",
          "type": "uint256"
        },
        {
          "internalType": "uint256",
          "name": "expirationTime",
          "type": "uint256"
        },
        {
          "internalType": "uint256",
          "name": "premiumPrice",
          "type": "uint256"
        },
        {
          "internalType": "bool",
          "name": "executed",
          "type": "bool"
        }
      ],
      "stateMutability": "view",
      "type": "function"
    },
    {
      "inputs": [
        {
          "internalType": "uint256",
          "name": "tokenId",
          "type": "uint256"
        }
      ],
      "name": "ownerOf",
      "outputs": [
        {
          "internalType": "address",
          "name": "",
          "type": "address"
        }
      ],
      "stateMutability": "view",
      "type": "function"
    },
    {
      "inputs": [
        {
          "internalType": "address",
          "name": "from",
          "type": "address"
        },
        {
          "internalType": "address",
          "name": "to",
          "type": "address"
        },
        {
          "internalType": "uint256",
          "name": "tokenId",
          "type": "uint256"
        }
      ],
      "name": "safeTransferFrom",
      "outputs": [],
      "stateMutability": "nonpayable",
      "type": "function"
    },
    {
      "inputs": [
        {
          "internalType": "address",
          "name": "from",
          "type": "address"
        },
        {
          "internalType": "address",
          "name": "to",
          "type": "address"
        },
        {
          "internalType": "uint256",
          "name": "tokenId",
          "type": "uint256"
        },
        {
          "internalType": "bytes",
          "name": "_data",
          "type": "bytes"
        }
      ],
      "name": "safeTransferFrom",
      "outputs": [],
      "stateMutability": "nonpayable",
      "type": "function"
    },
    {
      "inputs": [
        {
          "internalType": "address",
          "name": "operator",
          "type": "address"
        },
        {
          "internalType": "bool",
          "name": "approved",
          "type": "bool"
        }
      ],
      "name": "setApprovalForAll",
      "outputs": [],
      "stateMutability": "nonpayable",
      "type": "function"
    },
    {
      "inputs": [
        {
          "internalType": "bytes4",
          "name": "interfaceId",
          "type": "bytes4"
        }
      ],
      "name": "supportsInterface",
      "outputs": [
        {
          "internalType": "bool",
          "name": "",
          "type": "bool"
        }
      ],
      "stateMutability": "view",
      "type": "function"
    },
    {
      "inputs": [],
      "name": "symbol",
      "outputs": [
        {
          "internalType": "string",
          "name": "",
          "type": "string"
        }
      ],
      "stateMutability": "view",
      "type": "function"
    },
    {
      "inputs": [
        {
          "internalType": "uint256",
          "name": "tokenId",
          "type": "uint256"
        }
      ],
      "name": "tokenURI",
      "outputs": [
        {
          "internalType": "string",
          "name": "",
          "type": "string"
        }
      ],
      "stateMutability": "view",
      "type": "function"
    },
    {
      "inputs": [
        {
          "internalType": "address",
          "name": "from",
          "type": "address"
        },
        {
          "internalType": "address",
          "name": "to",
          "type": "address"
        },
        {
          "internalType": "uint256",
          "name": "tokenId",
          "type": "uint256"
        }
      ],
      "name": "transferFrom",
      "outputs": [],
      "stateMutability": "nonpayable",
      "type": "function"
    },
    {
      "inputs": [
        {
          "internalType": "address",
          "name": "_nftAddress",
          "type": "address"
        },
        {
          "internalType": "uint256",
          "name": "_nftID",
          "type": "uint256"
        },
        {
          "internalType": "uint256",
          "name": "_optionID",
          "type": "uint256"
        }
      ],
      "name": "withdrawNFTFromUnexercisedOption",
      "outputs": [],
      "stateMutability": "nonpayable",
      "type": "function"
    },
    {
      "stateMutability": "payable",
      "type": "receive"
    }
  ],
  "bytecode": "0x60806040523480156200001157600080fd5b506040518060400160405280600b81526020017f436f766572656443616c6c0000000000000000000000000000000000000000008152506040518060400160405280600481526020017f43414c4c00000000000000000000000000000000000000000000000000000000815250816000908051906020019062000096929190620000b8565b508060019080519060200190620000af929190620000b8565b505050620001cd565b828054620000c69062000197565b90600052602060002090601f016020900481019282620000ea576000855562000136565b82601f106200010557805160ff191683800117855562000136565b8280016001018555821562000136579182015b828111156200013557825182559160200191906001019062000118565b5b50905062000145919062000149565b5090565b5b80821115620001645760008160009055506001016200014a565b5090565b7f4e487b7100000000000000000000000000000000000000000000000000000000600052602260045260246000fd5b60006002820490506001821680620001b057607f821691505b60208210811415620001c757620001c662000168565b5b50919050565b614af380620001dd6000396000f3fe60806040526004361061012e5760003560e01c80635fc2fcdf116100ab578063b88d4fde1161006f578063b88d4fde14610420578063be6e6a0914610449578063c87b56dd1461048c578063e276023d146104c9578063e725bf6c14610506578063e985e9c51461052257610135565b80635fc2fcdf1461030e5780636352211e1461035257806370a082311461038f57806395d89b41146103cc578063a22cb465146103f757610135565b806318b7edeb116100f257806318b7edeb1461023157806323b872dd1461025c57806342842e0e1461028557806342aa1259146102ae57806348747778146102f257610135565b806301ffc9a71461013a57806306fdde0314610177578063081812fc146101a2578063095ea7b3146101df5780630d6e2ef11461020857610135565b3661013557005b600080fd5b34801561014657600080fd5b50610161600480360381019061015c9190613062565b61055f565b60405161016e91906130aa565b60405180910390f35b34801561018357600080fd5b5061018c610641565b604051610199919061315e565b60405180910390f35b3480156101ae57600080fd5b506101c960048036038101906101c491906131b6565b6106d3565b6040516101d69190613224565b60405180910390f35b3480156101eb57600080fd5b506102066004803603810190610201919061326b565b610758565b005b34801561021457600080fd5b5061022f600480360381019061022a91906132ab565b610870565b005b34801561023d57600080fd5b50610246610d0b565b604051610253919061330d565b60405180910390f35b34801561026857600080fd5b50610283600480360381019061027e9190613328565b610d11565b005b34801561029157600080fd5b506102ac60048036038101906102a79190613328565b610d71565b005b3480156102ba57600080fd5b506102d560048036038101906102d0919061326b565b610d91565b6040516102e998979695949392919061337b565b60405180910390f35b61030c6004803603810190610307919061326b565b610e53565b005b34801561031a57600080fd5b506103356004803603810190610330919061326b565b611132565b60405161034998979695949392919061337b565b60405180910390f35b34801561035e57600080fd5b50610379600480360381019061037491906131b6565b6111f4565b6040516103869190613224565b60405180910390f35b34801561039b57600080fd5b506103b660048036038101906103b191906133f9565b6112a6565b6040516103c3919061330d565b60405180910390f35b3480156103d857600080fd5b506103e161135e565b6040516103ee919061315e565b60405180910390f35b34801561040357600080fd5b5061041e60048036038101906104199190613452565b6113f0565b005b34801561042c57600080fd5b50610447600480360381019061044291906135c7565b611406565b005b34801561045557600080fd5b50610470600480360381019061046b919061326b565b611468565b604051610483979695949392919061364a565b60405180910390f35b34801561049857600080fd5b506104b360048036038101906104ae91906131b6565b611564565b6040516104c0919061315e565b60405180910390f35b3480156104d557600080fd5b506104f060048036038101906104eb91906136b9565b61160b565b6040516104fd919061330d565b60405180910390f35b610520600480360381019061051b919061326b565b611cde565b005b34801561052e57600080fd5b5061054960048036038101906105449190613734565b6122c2565b60405161055691906130aa565b60405180910390f35b60007f80ac58cd000000000000000000000000000000000000000000000000000000007bffffffffffffffffffffffffffffffffffffffffffffffffffffffff1916827bffffffffffffffffffffffffffffffffffffffffffffffffffffffff1916148061062a57507f5b5e139f000000000000000000000000000000000000000000000000000000007bffffffffffffffffffffffffffffffffffffffffffffffffffffffff1916827bffffffffffffffffffffffffffffffffffffffffffffffffffffffff1916145b8061063a575061063982612356565b5b9050919050565b606060008054610650906137a3565b80601f016020809104026020016040519081016040528092919081815260200182805461067c906137a3565b80156106c95780601f1061069e576101008083540402835291602001916106c9565b820191906000526020600020905b8154815290600101906020018083116106ac57829003601f168201915b5050505050905090565b60006106de826123c0565b61071d576040517f08c379a000000000000000000000000000000000000000000000000000000000815260040161071490613847565b60405180910390fd5b6004600083815260200190815260200160002060009054906101000a900473ffffffffffffffffffffffffffffffffffffffff169050919050565b6000610763826111f4565b90508073ffffffffffffffffffffffffffffffffffffffff168373ffffffffffffffffffffffffffffffffffffffff1614156107d4576040517f08c379a00000000000000000000000000000000000000000000000000000000081526004016107cb906138d9565b60405180910390fd5b8073ffffffffffffffffffffffffffffffffffffffff166107f361242c565b73ffffffffffffffffffffffffffffffffffffffff16148061082257506108218161081c61242c565b6122c2565b5b610861576040517f08c379a00000000000000000000000000000000000000000000000000000000081526004016108589061396b565b60405180910390fd5b61086b8383612434565b505050565b6000600860008573ffffffffffffffffffffffffffffffffffffffff1673ffffffffffffffffffffffffffffffffffffffff168152602001908152602001600020600083815260200190815260200160002090508060010160009054906101000a900473ffffffffffffffffffffffffffffffffffffffff1673ffffffffffffffffffffffffffffffffffffffff163373ffffffffffffffffffffffffffffffffffffffff1614610956576040517f08c379a000000000000000000000000000000000000000000000000000000000815260040161094d906139d7565b60405180910390fd5b600015158160070160009054906101000a900460ff161515146109ae576040517f08c379a00000000000000000000000000000000000000000000000000000000081526004016109a590613a43565b60405180910390fd5b806005015442116109f4576040517f08c379a00000000000000000000000000000000000000000000000000000000081526004016109eb90613aaf565b60405180910390fd5b8373ffffffffffffffffffffffffffffffffffffffff166323b872dd308360010160009054906101000a900473ffffffffffffffffffffffffffffffffffffffff16866040518463ffffffff1660e01b8152600401610a5593929190613acf565b600060405180830381600087803b158015610a6f57600080fd5b505af1158015610a83573d6000803e3d6000fd5b50505050600760008260010160009054906101000a900473ffffffffffffffffffffffffffffffffffffffff1673ffffffffffffffffffffffffffffffffffffffff1673ffffffffffffffffffffffffffffffffffffffff1681526020019081526020016000206000838152602001908152602001600020600080820160006101000a81549073ffffffffffffffffffffffffffffffffffffffff02191690556001820160006101000a81549073ffffffffffffffffffffffffffffffffffffffff02191690556002820160006101000a81549073ffffffffffffffffffffffffffffffffffffffff021916905560038201600090556004820160009055600582016000905560068201600090556007820160006101000a81549060ff02191690555050600860008573ffffffffffffffffffffffffffffffffffffffff1673ffffffffffffffffffffffffffffffffffffffff1681526020019081526020016000206000838152602001908152602001600020600080820160006101000a81549073ffffffffffffffffffffffffffffffffffffffff02191690556001820160006101000a81549073ffffffffffffffffffffffffffffffffffffffff02191690556002820160006101000a81549073ffffffffffffffffffffffffffffffffffffffff021916905560038201600090556004820160009055600582016000905560068201600090556007820160006101000a81549060ff02191690555050600073ffffffffffffffffffffffffffffffffffffffff168160000160009054906101000a900473ffffffffffffffffffffffffffffffffffffffff1673ffffffffffffffffffffffffffffffffffffffff1614610d0557610d04826124ed565b5b50505050565b60065481565b610d22610d1c61242c565b826125fe565b610d61576040517f08c379a0000000000000000000000000000000000000000000000000000000008152600401610d5890613b78565b60405180910390fd5b610d6c8383836126dc565b505050565b610d8c83838360405180602001604052806000815250611406565b505050565b6007602052816000526040600020602052806000526040600020600091509150508060000160009054906101000a900473ffffffffffffffffffffffffffffffffffffffff16908060010160009054906101000a900473ffffffffffffffffffffffffffffffffffffffff16908060020160009054906101000a900473ffffffffffffffffffffffffffffffffffffffff16908060030154908060040154908060050154908060060154908060070160009054906101000a900460ff16905088565b6000600860008473ffffffffffffffffffffffffffffffffffffffff1673ffffffffffffffffffffffffffffffffffffffff168152602001908152602001600020600083815260200190815260200160002090508060060154341015610eee576040517f08c379a0000000000000000000000000000000000000000000000000000000008152600401610ee590613c0a565b60405180910390fd5b80600501544210610f34576040517f08c379a0000000000000000000000000000000000000000000000000000000008152600401610f2b90613c9c565b60405180910390fd5b600015158160070160009054906101000a900460ff16151514610f8c576040517f08c379a0000000000000000000000000000000000000000000000000000000008152600401610f8390613d08565b60405180910390fd5b338160000160006101000a81548173ffffffffffffffffffffffffffffffffffffffff021916908373ffffffffffffffffffffffffffffffffffffffff16021790555060008160010160009054906101000a900473ffffffffffffffffffffffffffffffffffffffff1673ffffffffffffffffffffffffffffffffffffffff163460405161101990613d59565b60006040518083038185875af1925050503d8060008114611056576040519150601f19603f3d011682016040523d82523d6000602084013e61105b565b606091505b505090508061106957600080fd5b61107533600654612938565b7f1ead1dbe92cd0cc1fa89f39e1adb6c9b7c36cd82314c8710d9e24d531eda76cb8260000160009054906101000a900473ffffffffffffffffffffffffffffffffffffffff168360010160009054906101000a900473ffffffffffffffffffffffffffffffffffffffff168460020160009054906101000a900473ffffffffffffffffffffffffffffffffffffffff168560030154866006015460065460405161112496959493929190613d6e565b60405180910390a150505050565b6008602052816000526040600020602052806000526040600020600091509150508060000160009054906101000a900473ffffffffffffffffffffffffffffffffffffffff16908060010160009054906101000a900473ffffffffffffffffffffffffffffffffffffffff16908060020160009054906101000a900473ffffffffffffffffffffffffffffffffffffffff16908060030154908060040154908060050154908060060154908060070160009054906101000a900460ff16905088565b6000806002600084815260200190815260200160002060009054906101000a900473ffffffffffffffffffffffffffffffffffffffff169050600073ffffffffffffffffffffffffffffffffffffffff168173ffffffffffffffffffffffffffffffffffffffff16141561129d576040517f08c379a000000000000000000000000000000000000000000000000000000000815260040161129490613e41565b60405180910390fd5b80915050919050565b60008073ffffffffffffffffffffffffffffffffffffffff168273ffffffffffffffffffffffffffffffffffffffff161415611317576040517f08c379a000000000000000000000000000000000000000000000000000000000815260040161130e90613ed3565b60405180910390fd5b600360008373ffffffffffffffffffffffffffffffffffffffff1673ffffffffffffffffffffffffffffffffffffffff168152602001908152602001600020549050919050565b60606001805461136d906137a3565b80601f0160208091040260200160405190810160405280929190818152602001828054611399906137a3565b80156113e65780601f106113bb576101008083540402835291602001916113e6565b820191906000526020600020905b8154815290600101906020018083116113c957829003601f168201915b5050505050905090565b6114026113fb61242c565b8383612b06565b5050565b61141761141161242c565b836125fe565b611456576040517f08c379a000000000000000000000000000000000000000000000000000000000815260040161144d90613b78565b60405180910390fd5b61146284848484612c73565b50505050565b600080600080600080600080600860008b73ffffffffffffffffffffffffffffffffffffffff1673ffffffffffffffffffffffffffffffffffffffff16815260200190815260200160002060008a815260200190815260200160002090508060020160009054906101000a900473ffffffffffffffffffffffffffffffffffffffff1681600301548260040154836005015484600601548560000160009054906101000a900473ffffffffffffffffffffffffffffffffffffffff168660010160009054906101000a900473ffffffffffffffffffffffffffffffffffffffff1697509750975097509750975097505092959891949750929550565b606061156f826123c0565b6115ae576040517f08c379a00000000000000000000000000000000000000000000000000000000081526004016115a590613f65565b60405180910390fd5b60006115b8612ccf565b905060008151116115d85760405180602001604052806000815250611603565b806115e284612ce6565b6040516020016115f3929190613fc1565b6040516020818303038152906040525b915050919050565b60003373ffffffffffffffffffffffffffffffffffffffff168673ffffffffffffffffffffffffffffffffffffffff16636352211e876040518263ffffffff1660e01b815260040161165d919061330d565b60206040518083038186803b15801561167557600080fd5b505afa158015611689573d6000803e3d6000fd5b505050506040513d601f19601f820116820180604052508101906116ad9190613ffa565b73ffffffffffffffffffffffffffffffffffffffff1614611703576040517f08c379a00000000000000000000000000000000000000000000000000000000081526004016116fa90614099565b60405180910390fd5b6301e1338083111561174a576040517f08c379a00000000000000000000000000000000000000000000000000000000081526004016117419061412b565b60405180910390fd5b62093a80831015611790576040517f08c379a0000000000000000000000000000000000000000000000000000000008152600401611787906141bd565b60405180910390fd5b3073ffffffffffffffffffffffffffffffffffffffff168673ffffffffffffffffffffffffffffffffffffffff1663081812fc876040518263ffffffff1660e01b81526004016117e0919061330d565b60206040518083038186803b1580156117f857600080fd5b505afa15801561180c573d6000803e3d6000fd5b505050506040513d601f19601f820116820180604052508101906118309190613ffa565b73ffffffffffffffffffffffffffffffffffffffff1614611886576040517f08c379a000000000000000000000000000000000000000000000000000000000815260040161187d9061424f565b60405180910390fd5b8573ffffffffffffffffffffffffffffffffffffffff166323b872dd3330886040518463ffffffff1660e01b81526004016118c393929190613acf565b600060405180830381600087803b1580156118dd57600080fd5b505af11580156118f1573d6000803e3d6000fd5b50505050600660008154809291906119089061429e565b91905055506000604051806101000160405280600073ffffffffffffffffffffffffffffffffffffffff1681526020013373ffffffffffffffffffffffffffffffffffffffff1681526020018873ffffffffffffffffffffffffffffffffffffffff168152602001878152602001868152602001854261198891906142e7565b815260200184815260200160001515815250905080600760003373ffffffffffffffffffffffffffffffffffffffff1673ffffffffffffffffffffffffffffffffffffffff1681526020019081526020016000206000600654815260200190815260200160002060008201518160000160006101000a81548173ffffffffffffffffffffffffffffffffffffffff021916908373ffffffffffffffffffffffffffffffffffffffff16021790555060208201518160010160006101000a81548173ffffffffffffffffffffffffffffffffffffffff021916908373ffffffffffffffffffffffffffffffffffffffff16021790555060408201518160020160006101000a81548173ffffffffffffffffffffffffffffffffffffffff021916908373ffffffffffffffffffffffffffffffffffffffff160217905550606082015181600301556080820151816004015560a0820151816005015560c0820151816006015560e08201518160070160006101000a81548160ff02191690831515021790555090505080600860008973ffffffffffffffffffffffffffffffffffffffff1673ffffffffffffffffffffffffffffffffffffffff1681526020019081526020016000206000600654815260200190815260200160002060008201518160000160006101000a81548173ffffffffffffffffffffffffffffffffffffffff021916908373ffffffffffffffffffffffffffffffffffffffff16021790555060208201518160010160006101000a81548173ffffffffffffffffffffffffffffffffffffffff021916908373ffffffffffffffffffffffffffffffffffffffff16021790555060408201518160020160006101000a81548173ffffffffffffffffffffffffffffffffffffffff021916908373ffffffffffffffffffffffffffffffffffffffff160217905550606082015181600301556080820151816004015560a0820151816005015560c0820151816006015560e08201518160070160006101000a81548160ff0219169083151502179055509050507fba2dba927394798c7f9451c19c6f22348a15a63bc2f8ea33fb849cffa2353e9c878787878760065487600001513342604051611cc79998979695949392919061433d565b60405180910390a160065491505095945050505050565b6000600860008473ffffffffffffffffffffffffffffffffffffffff1673ffffffffffffffffffffffffffffffffffffffff168152602001908152602001600020600083815260200190815260200160002090503373ffffffffffffffffffffffffffffffffffffffff163073ffffffffffffffffffffffffffffffffffffffff16636352211e6006546040518263ffffffff1660e01b8152600401611d84919061330d565b60206040518083038186803b158015611d9c57600080fd5b505afa158015611db0573d6000803e3d6000fd5b505050506040513d601f19601f82011682018060405250810190611dd49190613ffa565b73ffffffffffffffffffffffffffffffffffffffff1614611e2a576040517f08c379a0000000000000000000000000000000000000000000000000000000008152600401611e219061443c565b60405180910390fd5b600015158160070160009054906101000a900460ff16151514611e82576040517f08c379a0000000000000000000000000000000000000000000000000000000008152600401611e7990613d08565b60405180910390fd5b8060050154421115611ec9576040517f08c379a0000000000000000000000000000000000000000000000000000000008152600401611ec0906144a8565b60405180910390fd5b8060040154341015611f10576040517f08c379a0000000000000000000000000000000000000000000000000000000008152600401611f079061453a565b60405180910390fd5b60018160070160006101000a81548160ff02191690831515021790555060008160010160009054906101000a900473ffffffffffffffffffffffffffffffffffffffff1673ffffffffffffffffffffffffffffffffffffffff1634604051611f7790613d59565b60006040518083038185875af1925050503d8060008114611fb4576040519150601f19603f3d011682016040523d82523d6000602084013e611fb9565b606091505b5050905080611fc757600080fd5b8160020160009054906101000a900473ffffffffffffffffffffffffffffffffffffffff1673ffffffffffffffffffffffffffffffffffffffff166323b872dd303385600301546040518463ffffffff1660e01b815260040161202c93929190613acf565b600060405180830381600087803b15801561204657600080fd5b505af115801561205a573d6000803e3d6000fd5b50505050600760008360010160009054906101000a900473ffffffffffffffffffffffffffffffffffffffff1673ffffffffffffffffffffffffffffffffffffffff1673ffffffffffffffffffffffffffffffffffffffff1681526020019081526020016000206000848152602001908152602001600020600080820160006101000a81549073ffffffffffffffffffffffffffffffffffffffff02191690556001820160006101000a81549073ffffffffffffffffffffffffffffffffffffffff02191690556002820160006101000a81549073ffffffffffffffffffffffffffffffffffffffff021916905560038201600090556004820160009055600582016000905560068201600090556007820160006101000a81549060ff02191690555050600860008573ffffffffffffffffffffffffffffffffffffffff1673ffffffffffffffffffffffffffffffffffffffff1681526020019081526020016000206000848152602001908152602001600020600080820160006101000a81549073ffffffffffffffffffffffffffffffffffffffff02191690556001820160006101000a81549073ffffffffffffffffffffffffffffffffffffffff02191690556002820160006101000a81549073ffffffffffffffffffffffffffffffffffffffff021916905560038201600090556004820160009055600582016000905560068201600090556007820160006101000a81549060ff02191690555050612283836124ed565b7f71bef4a8469a3b83c64a11128d95ac7253a399544da7d5f50e8ef4a32f3fac326006546040516122b4919061330d565b60405180910390a150505050565b6000600560008473ffffffffffffffffffffffffffffffffffffffff1673ffffffffffffffffffffffffffffffffffffffff16815260200190815260200160002060008373ffffffffffffffffffffffffffffffffffffffff1673ffffffffffffffffffffffffffffffffffffffff16815260200190815260200160002060009054906101000a900460ff16905092915050565b60007f01ffc9a7000000000000000000000000000000000000000000000000000000007bffffffffffffffffffffffffffffffffffffffffffffffffffffffff1916827bffffffffffffffffffffffffffffffffffffffffffffffffffffffff1916149050919050565b60008073ffffffffffffffffffffffffffffffffffffffff166002600084815260200190815260200160002060009054906101000a900473ffffffffffffffffffffffffffffffffffffffff1673ffffffffffffffffffffffffffffffffffffffff1614159050919050565b600033905090565b816004600083815260200190815260200160002060006101000a81548173ffffffffffffffffffffffffffffffffffffffff021916908373ffffffffffffffffffffffffffffffffffffffff160217905550808273ffffffffffffffffffffffffffffffffffffffff166124a7836111f4565b73ffffffffffffffffffffffffffffffffffffffff167f8c5be1e5ebec7d5bd14f71427d1e84f3dd0314c0f7b2291e5b200ac8c7c3b92560405160405180910390a45050565b60006124f8826111f4565b905061250681600084612e47565b612511600083612434565b6001600360008373ffffffffffffffffffffffffffffffffffffffff1673ffffffffffffffffffffffffffffffffffffffff1681526020019081526020016000206000828254612561919061455a565b925050819055506002600083815260200190815260200160002060006101000a81549073ffffffffffffffffffffffffffffffffffffffff021916905581600073ffffffffffffffffffffffffffffffffffffffff168273ffffffffffffffffffffffffffffffffffffffff167fddf252ad1be2c89b69c2b068fc378daa952ba7f163c4a11628f55a4df523b3ef60405160405180910390a45050565b6000612609826123c0565b612648576040517f08c379a000000000000000000000000000000000000000000000000000000000815260040161263f90614600565b60405180910390fd5b6000612653836111f4565b90508073ffffffffffffffffffffffffffffffffffffffff168473ffffffffffffffffffffffffffffffffffffffff1614806126c257508373ffffffffffffffffffffffffffffffffffffffff166126aa846106d3565b73ffffffffffffffffffffffffffffffffffffffff16145b806126d357506126d281856122c2565b5b91505092915050565b8273ffffffffffffffffffffffffffffffffffffffff166126fc826111f4565b73ffffffffffffffffffffffffffffffffffffffff1614612752576040517f08c379a000000000000000000000000000000000000000000000000000000000815260040161274990614692565b60405180910390fd5b600073ffffffffffffffffffffffffffffffffffffffff168273ffffffffffffffffffffffffffffffffffffffff1614156127c2576040517f08c379a00000000000000000000000000000000000000000000000000000000081526004016127b990614724565b60405180910390fd5b6127cd838383612e47565b6127d8600082612434565b6001600360008573ffffffffffffffffffffffffffffffffffffffff1673ffffffffffffffffffffffffffffffffffffffff1681526020019081526020016000206000828254612828919061455a565b925050819055506001600360008473ffffffffffffffffffffffffffffffffffffffff1673ffffffffffffffffffffffffffffffffffffffff168152602001908152602001600020600082825461287f91906142e7565b92505081905550816002600083815260200190815260200160002060006101000a81548173ffffffffffffffffffffffffffffffffffffffff021916908373ffffffffffffffffffffffffffffffffffffffff160217905550808273ffffffffffffffffffffffffffffffffffffffff168473ffffffffffffffffffffffffffffffffffffffff167fddf252ad1be2c89b69c2b068fc378daa952ba7f163c4a11628f55a4df523b3ef60405160405180910390a4505050565b600073ffffffffffffffffffffffffffffffffffffffff168273ffffffffffffffffffffffffffffffffffffffff1614156129a8576040517f08c379a000000000000000000000000000000000000000000000000000000000815260040161299f90614790565b60405180910390fd5b6129b1816123c0565b156129f1576040517f08c379a00000000000000000000000000000000000000000000000000000000081526004016129e8906147fc565b60405180910390fd5b6129fd60008383612e47565b6001600360008473ffffffffffffffffffffffffffffffffffffffff1673ffffffffffffffffffffffffffffffffffffffff1681526020019081526020016000206000828254612a4d91906142e7565b92505081905550816002600083815260200190815260200160002060006101000a81548173ffffffffffffffffffffffffffffffffffffffff021916908373ffffffffffffffffffffffffffffffffffffffff160217905550808273ffffffffffffffffffffffffffffffffffffffff16600073ffffffffffffffffffffffffffffffffffffffff167fddf252ad1be2c89b69c2b068fc378daa952ba7f163c4a11628f55a4df523b3ef60405160405180910390a45050565b8173ffffffffffffffffffffffffffffffffffffffff168373ffffffffffffffffffffffffffffffffffffffff161415612b75576040517f08c379a0000000000000000000000000000000000000000000000000000000008152600401612b6c90614868565b60405180910390fd5b80600560008573ffffffffffffffffffffffffffffffffffffffff1673ffffffffffffffffffffffffffffffffffffffff16815260200190815260200160002060008473ffffffffffffffffffffffffffffffffffffffff1673ffffffffffffffffffffffffffffffffffffffff16815260200190815260200160002060006101000a81548160ff0219169083151502179055508173ffffffffffffffffffffffffffffffffffffffff168373ffffffffffffffffffffffffffffffffffffffff167f17307eab39ab6107e8899845ad3d59bd9653f200f220920489ca2b5937696c3183604051612c6691906130aa565b60405180910390a3505050565b612c7e8484846126dc565b612c8a84848484612e4c565b612cc9576040517f08c379a0000000000000000000000000000000000000000000000000000000008152600401612cc0906148fa565b60405180910390fd5b50505050565b606060405180602001604052806000815250905090565b60606000821415612d2e576040518060400160405280600181526020017f30000000000000000000000000000000000000000000000000000000000000008152509050612e42565b600082905060005b60008214612d60578080612d499061429e565b915050600a82612d599190614949565b9150612d36565b60008167ffffffffffffffff811115612d7c57612d7b61349c565b5b6040519080825280601f01601f191660200182016040528015612dae5781602001600182028036833780820191505090505b5090505b60008514612e3b57600182612dc7919061455a565b9150600a85612dd6919061497a565b6030612de291906142e7565b60f81b818381518110612df857612df76149ab565b5b60200101907effffffffffffffffffffffffffffffffffffffffffffffffffffffffffffff1916908160001a905350600a85612e349190614949565b9450612db2565b8093505050505b919050565b505050565b6000612e6d8473ffffffffffffffffffffffffffffffffffffffff16612fe3565b15612fd6578373ffffffffffffffffffffffffffffffffffffffff1663150b7a02612e9661242c565b8786866040518563ffffffff1660e01b8152600401612eb89493929190614a2f565b602060405180830381600087803b158015612ed257600080fd5b505af1925050508015612f0357506040513d601f19601f82011682018060405250810190612f009190614a90565b60015b612f86573d8060008114612f33576040519150601f19603f3d011682016040523d82523d6000602084013e612f38565b606091505b50600081511415612f7e576040517f08c379a0000000000000000000000000000000000000000000000000000000008152600401612f75906148fa565b60405180910390fd5b805181602001fd5b63150b7a0260e01b7bffffffffffffffffffffffffffffffffffffffffffffffffffffffff1916817bffffffffffffffffffffffffffffffffffffffffffffffffffffffff191614915050612fdb565b600190505b949350505050565b600080823b905060008111915050919050565b6000604051905090565b600080fd5b600080fd5b60007fffffffff0000000000000000000000000000000000000000000000000000000082169050919050565b61303f8161300a565b811461304a57600080fd5b50565b60008135905061305c81613036565b92915050565b60006020828403121561307857613077613000565b5b60006130868482850161304d565b91505092915050565b60008115159050919050565b6130a48161308f565b82525050565b60006020820190506130bf600083018461309b565b92915050565b600081519050919050565b600082825260208201905092915050565b60005b838110156130ff5780820151818401526020810190506130e4565b8381111561310e576000848401525b50505050565b6000601f19601f8301169050919050565b6000613130826130c5565b61313a81856130d0565b935061314a8185602086016130e1565b61315381613114565b840191505092915050565b600060208201905081810360008301526131788184613125565b905092915050565b6000819050919050565b61319381613180565b811461319e57600080fd5b50565b6000813590506131b08161318a565b92915050565b6000602082840312156131cc576131cb613000565b5b60006131da848285016131a1565b91505092915050565b600073ffffffffffffffffffffffffffffffffffffffff82169050919050565b600061320e826131e3565b9050919050565b61321e81613203565b82525050565b60006020820190506132396000830184613215565b92915050565b61324881613203565b811461325357600080fd5b50565b6000813590506132658161323f565b92915050565b6000806040838503121561328257613281613000565b5b600061329085828601613256565b92505060206132a1858286016131a1565b9150509250929050565b6000806000606084860312156132c4576132c3613000565b5b60006132d286828701613256565b93505060206132e3868287016131a1565b92505060406132f4868287016131a1565b9150509250925092565b61330781613180565b82525050565b600060208201905061332260008301846132fe565b92915050565b60008060006060848603121561334157613340613000565b5b600061334f86828701613256565b935050602061336086828701613256565b9250506040613371868287016131a1565b9150509250925092565b600061010082019050613391600083018b613215565b61339e602083018a613215565b6133ab6040830189613215565b6133b860608301886132fe565b6133c560808301876132fe565b6133d260a08301866132fe565b6133df60c08301856132fe565b6133ec60e083018461309b565b9998505050505050505050565b60006020828403121561340f5761340e613000565b5b600061341d84828501613256565b91505092915050565b61342f8161308f565b811461343a57600080fd5b50565b60008135905061344c81613426565b92915050565b6000806040838503121561346957613468613000565b5b600061347785828601613256565b92505060206134888582860161343d565b9150509250929050565b600080fd5b600080fd5b7f4e487b7100000000000000000000000000000000000000000000000000000000600052604160045260246000fd5b6134d482613114565b810181811067ffffffffffffffff821117156134f3576134f261349c565b5b80604052505050565b6000613506612ff6565b905061351282826134cb565b919050565b600067ffffffffffffffff8211156135325761353161349c565b5b61353b82613114565b9050602081019050919050565b82818337600083830152505050565b600061356a61356584613517565b6134fc565b90508281526020810184848401111561358657613585613497565b5b613591848285613548565b509392505050565b600082601f8301126135ae576135ad613492565b5b81356135be848260208601613557565b91505092915050565b600080600080608085870312156135e1576135e0613000565b5b60006135ef87828801613256565b945050602061360087828801613256565b9350506040613611878288016131a1565b925050606085013567ffffffffffffffff81111561363257613631613005565b5b61363e87828801613599565b91505092959194509250565b600060e08201905061365f600083018a613215565b61366c60208301896132fe565b61367960408301886132fe565b61368660608301876132fe565b61369360808301866132fe565b6136a060a0830185613215565b6136ad60c0830184613215565b98975050505050505050565b600080600080600060a086880312156136d5576136d4613000565b5b60006136e388828901613256565b95505060206136f4888289016131a1565b9450506040613705888289016131a1565b9350506060613716888289016131a1565b9250506080613727888289016131a1565b9150509295509295909350565b6000806040838503121561374b5761374a613000565b5b600061375985828601613256565b925050602061376a85828601613256565b9150509250929050565b7f4e487b7100000000000000000000000000000000000000000000000000000000600052602260045260246000fd5b600060028204905060018216806137bb57607f821691505b602082108114156137cf576137ce613774565b5b50919050565b7f4552433732313a20617070726f76656420717565727920666f72206e6f6e657860008201527f697374656e7420746f6b656e0000000000000000000000000000000000000000602082015250565b6000613831602c836130d0565b915061383c826137d5565b604082019050919050565b6000602082019050818103600083015261386081613824565b9050919050565b7f4552433732313a20617070726f76616c20746f2063757272656e74206f776e6560008201527f7200000000000000000000000000000000000000000000000000000000000000602082015250565b60006138c36021836130d0565b91506138ce82613867565b604082019050919050565b600060208201905081810360008301526138f2816138b6565b9050919050565b7f4552433732313a20617070726f76652063616c6c6572206973206e6f74206f7760008201527f6e6572206e6f7220617070726f76656420666f7220616c6c0000000000000000602082015250565b60006139556038836130d0565b9150613960826138f9565b604082019050919050565b6000602082019050818103600083015261398481613948565b9050919050565b7f796f7520646f6e2774206f776e2074686973204e465400000000000000000000600082015250565b60006139c16016836130d0565b91506139cc8261398b565b602082019050919050565b600060208201905081810360008301526139f0816139b4565b9050919050565b7f74686973206f7074696f6e2077617320616c7265616479206578656375746564600082015250565b6000613a2d6020836130d0565b9150613a38826139f7565b602082019050919050565b60006020820190508181036000830152613a5c81613a20565b9050919050565b7f74686973206f7074696f6e20686173206e6f7420657870697265642079657400600082015250565b6000613a99601f836130d0565b9150613aa482613a63565b602082019050919050565b60006020820190508181036000830152613ac881613a8c565b9050919050565b6000606082019050613ae46000830186613215565b613af16020830185613215565b613afe60408301846132fe565b949350505050565b7f4552433732313a207472616e736665722063616c6c6572206973206e6f74206f60008201527f776e6572206e6f7220617070726f766564000000000000000000000000000000602082015250565b6000613b626031836130d0565b9150613b6d82613b06565b604082019050919050565b60006020820190508181036000830152613b9181613b55565b9050919050565b7f706c656173652073656e6420656e6f7567682065746820666f72206f7074696f60008201527f6e207072656d69756d0000000000000000000000000000000000000000000000602082015250565b6000613bf46029836130d0565b9150613bff82613b98565b604082019050919050565b60006020820190508181036000830152613c2381613be7565b9050919050565b7f746865206f7074696f6e20796f752061726520747279696e6720746f2062757960008201527f2069732065787069726564000000000000000000000000000000000000000000602082015250565b6000613c86602b836130d0565b9150613c9182613c2a565b604082019050919050565b60006020820190508181036000830152613cb581613c79565b9050919050565b7f6f7074696f6e2068617320616c7265616479206265656e206578656375746564600082015250565b6000613cf26020836130d0565b9150613cfd82613cbc565b602082019050919050565b60006020820190508181036000830152613d2181613ce5565b9050919050565b600081905092915050565b50565b6000613d43600083613d28565b9150613d4e82613d33565b600082019050919050565b6000613d6482613d36565b9150819050919050565b600060c082019050613d836000830189613215565b613d906020830188613215565b613d9d6040830187613215565b613daa60608301866132fe565b613db760808301856132fe565b613dc460a08301846132fe565b979650505050505050565b7f4552433732313a206f776e657220717565727920666f72206e6f6e657869737460008201527f656e7420746f6b656e0000000000000000000000000000000000000000000000602082015250565b6000613e2b6029836130d0565b9150613e3682613dcf565b604082019050919050565b60006020820190508181036000830152613e5a81613e1e565b9050919050565b7f4552433732313a2062616c616e636520717565727920666f7220746865207a6560008201527f726f206164647265737300000000000000000000000000000000000000000000602082015250565b6000613ebd602a836130d0565b9150613ec882613e61565b604082019050919050565b60006020820190508181036000830152613eec81613eb0565b9050919050565b7f4552433732314d657461646174613a2055524920717565727920666f72206e6f60008201527f6e6578697374656e7420746f6b656e0000000000000000000000000000000000602082015250565b6000613f4f602f836130d0565b9150613f5a82613ef3565b604082019050919050565b60006020820190508181036000830152613f7e81613f42565b9050919050565b600081905092915050565b6000613f9b826130c5565b613fa58185613f85565b9350613fb58185602086016130e1565b80840191505092915050565b6000613fcd8285613f90565b9150613fd98284613f90565b91508190509392505050565b600081519050613ff48161323f565b92915050565b6000602082840312156140105761400f613000565b5b600061401e84828501613fe5565b91505092915050565b7f6d757374206f776e20746865204e465420746f2073656c6c20612063616c6c2060008201527f6f7074696f6e0000000000000000000000000000000000000000000000000000602082015250565b60006140836026836130d0565b915061408e82614027565b604082019050919050565b600060208201905081810360008301526140b281614076565b9050919050565b7f6f7074696f6e2065787069726174696f6e2074696d65206d757374206265206c60008201527f657373207468616e203120796561720000000000000000000000000000000000602082015250565b6000614115602f836130d0565b9150614120826140b9565b604082019050919050565b6000602082019050818103600083015261414481614108565b9050919050565b7f6f7074696f6e2065787069726174696f6e2074696d65206d757374206265206760008201527f726561746572207468616e203720646179730000000000000000000000000000602082015250565b60006141a76032836130d0565b91506141b28261414b565b604082019050919050565b600060208201905081810360008301526141d68161419a565b9050919050565b7f6d75737420617070726f7665206e667420746f206265207472616e736665726560008201527f6400000000000000000000000000000000000000000000000000000000000000602082015250565b60006142396021836130d0565b9150614244826141dd565b604082019050919050565b600060208201905081810360008301526142688161422c565b9050919050565b7f4e487b7100000000000000000000000000000000000000000000000000000000600052601160045260246000fd5b60006142a982613180565b91507fffffffffffffffffffffffffffffffffffffffffffffffffffffffffffffffff8214156142dc576142db61426f565b5b600182019050919050565b60006142f282613180565b91506142fd83613180565b9250827fffffffffffffffffffffffffffffffffffffffffffffffffffffffffffffffff038211156143325761433161426f565b5b828201905092915050565b600061012082019050614353600083018c613215565b614360602083018b6132fe565b61436d604083018a6132fe565b61437a60608301896132fe565b61438760808301886132fe565b61439460a08301876132fe565b6143a160c0830186613215565b6143ae60e0830185613215565b6143bc6101008301846132fe565b9a9950505050505050505050565b7f6f6e6c7920746865206f7074696f6e20686f6c6465722063616e20657865726360008201527f6973652074686973206f7074696f6e0000000000000000000000000000000000602082015250565b6000614426602f836130d0565b9150614431826143ca565b604082019050919050565b6000602082019050818103600083015261445581614419565b9050919050565b7f74686973206f7074696f6e206861732065787069726564000000000000000000600082015250565b60006144926017836130d0565b915061449d8261445c565b602082019050919050565b600060208201905081810360008301526144c181614485565b9050919050565b7f706c656173652073656e6420656e6f7567682065746820746f2062757920746860008201527f65206e6674000000000000000000000000000000000000000000000000000000602082015250565b60006145246025836130d0565b915061452f826144c8565b604082019050919050565b6000602082019050818103600083015261455381614517565b9050919050565b600061456582613180565b915061457083613180565b9250828210156145835761458261426f565b5b828203905092915050565b7f4552433732313a206f70657261746f7220717565727920666f72206e6f6e657860008201527f697374656e7420746f6b656e0000000000000000000000000000000000000000602082015250565b60006145ea602c836130d0565b91506145f58261458e565b604082019050919050565b60006020820190508181036000830152614619816145dd565b9050919050565b7f4552433732313a207472616e73666572206f6620746f6b656e2074686174206960008201527f73206e6f74206f776e0000000000000000000000000000000000000000000000602082015250565b600061467c6029836130d0565b915061468782614620565b604082019050919050565b600060208201905081810360008301526146ab8161466f565b9050919050565b7f4552433732313a207472616e7366657220746f20746865207a65726f2061646460008201527f7265737300000000000000000000000000000000000000000000000000000000602082015250565b600061470e6024836130d0565b9150614719826146b2565b604082019050919050565b6000602082019050818103600083015261473d81614701565b9050919050565b7f4552433732313a206d696e7420746f20746865207a65726f2061646472657373600082015250565b600061477a6020836130d0565b915061478582614744565b602082019050919050565b600060208201905081810360008301526147a98161476d565b9050919050565b7f4552433732313a20746f6b656e20616c7265616479206d696e74656400000000600082015250565b60006147e6601c836130d0565b91506147f1826147b0565b602082019050919050565b60006020820190508181036000830152614815816147d9565b9050919050565b7f4552433732313a20617070726f766520746f2063616c6c657200000000000000600082015250565b60006148526019836130d0565b915061485d8261481c565b602082019050919050565b6000602082019050818103600083015261488181614845565b9050919050565b7f4552433732313a207472616e7366657220746f206e6f6e20455243373231526560008201527f63656976657220696d706c656d656e7465720000000000000000000000000000602082015250565b60006148e46032836130d0565b91506148ef82614888565b604082019050919050565b60006020820190508181036000830152614913816148d7565b9050919050565b7f4e487b7100000000000000000000000000000000000000000000000000000000600052601260045260246000fd5b600061495482613180565b915061495f83613180565b92508261496f5761496e61491a565b5b828204905092915050565b600061498582613180565b915061499083613180565b9250826149a05761499f61491a565b5b828206905092915050565b7f4e487b7100000000000000000000000000000000000000000000000000000000600052603260045260246000fd5b600081519050919050565b600082825260208201905092915050565b6000614a01826149da565b614a0b81856149e5565b9350614a1b8185602086016130e1565b614a2481613114565b840191505092915050565b6000608082019050614a446000830187613215565b614a516020830186613215565b614a5e60408301856132fe565b8181036060830152614a7081846149f6565b905095945050505050565b600081519050614a8a81613036565b92915050565b600060208284031215614aa657614aa5613000565b5b6000614ab484828501614a7b565b9150509291505056fea2646970667358221220b30a30d004b9931ce47bd06c5f6b9740755072ffdadc84e9a1dd57fb523a1edc64736f6c63430008090033",
  "linkReferences": {},
  "deployedLinkReferences": {}
}