{
  "_format": "hh-sol-artifact-1",
  "contractName": "TestNFT",
  "sourceName": "contracts/testNFT.sol",
  "abi": [
    {
      "inputs": [],
      "stateMutability": "nonpayable",
      "type": "constructor"
    },
    {
      "anonymous": false,
      "inputs": [
        {
          "indexed": true,
          "internalType": "address",
          "name": "owner",
          "type": "address"
        },
        {
          "indexed": true,
          "internalType": "address",
          "name": "approved",
          "type": "address"
        },
        {
          "indexed": true,
          "internalType": "uint256",
          "name": "tokenId",
          "type": "uint256"
        }
      ],
      "name": "Approval",
      "type": "event"
    },
    {
      "anonymous": false,
      "inputs": [
        {
          "indexed": true,
          "internalType": "address",
          "name": "owner",
          "type": "address"
        },
        {
          "indexed": true,
          "internalType": "address",
          "name": "operator",
          "type": "address"
        },
        {
          "indexed": false,
          "internalType": "bool",
          "name": "approved",
          "type": "bool"
        }
      ],
      "name": "ApprovalForAll",
      "type": "event"
    },
    {
      "anonymous": false,
      "inputs": [
        {
          "indexed": true,
          "internalType": "address",
          "name": "from",
          "type": "address"
        },
        {
          "indexed": true,
          "internalType": "address",
          "name": "to",
          "type": "address"
        },
        {
          "indexed": true,
          "internalType": "uint256",
          "name": "tokenId",
          "type": "uint256"
        }
      ],
      "name": "Transfer",
      "type": "event"
    },
    {
      "inputs": [
        {
          "internalType": "address",
          "name": "to",
          "type": "address"
        },
        {
          "internalType": "uint256",
          "name": "tokenId",
          "type": "uint256"
        }
      ],
      "name": "approve",
      "outputs": [],
      "stateMutability": "nonpayable",
      "type": "function"
    },
    {
      "inputs": [
        {
          "internalType": "address",
          "name": "owner",
          "type": "address"
        }
      ],
      "name": "balanceOf",
      "outputs": [
        {
          "internalType": "uint256",
          "name": "",
          "type": "uint256"
        }
      ],
      "stateMutability": "view",
      "type": "function"
    },
    {
      "inputs": [
        {
          "internalType": "uint256",
          "name": "tokenId",
          "type": "uint256"
        }
      ],
      "name": "getApproved",
      "outputs": [
        {
          "internalType": "address",
          "name": "",
          "type": "address"
        }
      ],
      "stateMutability": "view",
      "type": "function"
    },
    {
      "inputs": [
        {
          "internalType": "address",
          "name": "owner",
          "type": "address"
        },
        {
          "internalType": "address",
          "name": "operator",
          "type": "address"
        }
      ],
      "name": "isApprovedForAll",
      "outputs": [
        {
          "internalType": "bool",
          "name": "",
          "type": "bool"
        }
      ],
      "stateMutability": "view",
      "type": "function"
    },
    {
      "inputs": [],
      "name": "mintNFT",
      "outputs": [],
      "stateMutability": "nonpayable",
      "type": "function"
    },
    {
      "inputs": [],
      "name": "name",
      "outputs": [
        {
          "internalType": "string",
          "name": "",
          "type": "string"
        }
      ],
      "stateMutability": "view",
      "type": "function"
    },
    {
      "inputs": [
        {
          "internalType": "uint256",
          "name": "tokenId",
          "type": "uint256"
        }
      ],
      "name": "ownerOf",
      "outputs": [
        {
          "internalType": "address",
          "name": "",
          "type": "address"
        }
      ],
      "stateMutability": "view",
      "type": "function"
    },
    {
      "inputs": [
        {
          "internalType": "address",
          "name": "from",
          "type": "address"
        },
        {
          "internalType": "address",
          "name": "to",
          "type": "address"
        },
        {
          "internalType": "uint256",
          "name": "tokenId",
          "type": "uint256"
        }
      ],
      "name": "safeTransferFrom",
      "outputs": [],
      "stateMutability": "nonpayable",
      "type": "function"
    },
    {
      "inputs": [
        {
          "internalType": "address",
          "name": "from",
          "type": "address"
        },
        {
          "internalType": "address",
          "name": "to",
          "type": "address"
        },
        {
          "internalType": "uint256",
          "name": "tokenId",
          "type": "uint256"
        },
        {
          "internalType": "bytes",
          "name": "_data",
          "type": "bytes"
        }
      ],
      "name": "safeTransferFrom",
      "outputs": [],
      "stateMutability": "nonpayable",
      "type": "function"
    },
    {
      "inputs": [
        {
          "internalType": "address",
          "name": "operator",
          "type": "address"
        },
        {
          "internalType": "bool",
          "name": "approved",
          "type": "bool"
        }
      ],
      "name": "setApprovalForAll",
      "outputs": [],
      "stateMutability": "nonpayable",
      "type": "function"
    },
    {
      "inputs": [
        {
          "internalType": "bytes4",
          "name": "interfaceId",
          "type": "bytes4"
        }
      ],
      "name": "supportsInterface",
      "outputs": [
        {
          "internalType": "bool",
          "name": "",
          "type": "bool"
        }
      ],
      "stateMutability": "view",
      "type": "function"
    },
    {
      "inputs": [],
      "name": "symbol",
      "outputs": [
        {
          "internalType": "string",
          "name": "",
          "type": "string"
        }
      ],
      "stateMutability": "view",
      "type": "function"
    },
    {
      "inputs": [
        {
          "internalType": "uint256",
          "name": "tokenId",
          "type": "uint256"
        }
      ],
      "name": "tokenURI",
      "outputs": [
        {
          "internalType": "string",
          "name": "",
          "type": "string"
        }
      ],
      "stateMutability": "view",
      "type": "function"
    },
    {
      "inputs": [
        {
          "internalType": "address",
          "name": "from",
          "type": "address"
        },
        {
          "internalType": "address",
          "name": "to",
          "type": "address"
        },
        {
          "internalType": "uint256",
          "name": "tokenId",
          "type": "uint256"
        }
      ],
      "name": "transferFrom",
      "outputs": [],
      "stateMutability": "nonpayable",
      "type": "function"
    }
  ],
  "bytecode": "0x608060405260006006553480156200001657600080fd5b506040518060400160405280600481526020017f74657374000000000000000000000000000000000000000000000000000000008152506040518060400160405280600481526020017f746573740000000000000000000000000000000000000000000000000000000081525081600090805190602001906200009b929190620000bd565b508060019080519060200190620000b4929190620000bd565b505050620001d2565b828054620000cb906200019c565b90600052602060002090601f016020900481019282620000ef57600085556200013b565b82601f106200010a57805160ff19168380011785556200013b565b828001600101855582156200013b579182015b828111156200013a5782518255916020019190600101906200011d565b5b5090506200014a91906200014e565b5090565b5b80821115620001695760008160009055506001016200014f565b5090565b7f4e487b7100000000000000000000000000000000000000000000000000000000600052602260045260246000fd5b60006002820490506001821680620001b557607f821691505b60208210811415620001cc57620001cb6200016d565b5b50919050565b6126bf80620001e26000396000f3fe608060405234801561001057600080fd5b50600436106100ea5760003560e01c80636352211e1161008c578063a22cb46511610066578063a22cb46514610249578063b88d4fde14610265578063c87b56dd14610281578063e985e9c5146102b1576100ea565b80636352211e146101cb57806370a08231146101fb57806395d89b411461022b576100ea565b8063095ea7b3116100c8578063095ea7b31461016d57806314f710fe1461018957806323b872dd1461019357806342842e0e146101af576100ea565b806301ffc9a7146100ef57806306fdde031461011f578063081812fc1461013d575b600080fd5b61010960048036038101906101049190611642565b6102e1565b604051610116919061168a565b60405180910390f35b6101276103c3565b604051610134919061173e565b60405180910390f35b61015760048036038101906101529190611796565b610455565b6040516101649190611804565b60405180910390f35b6101876004803603810190610182919061184b565b6104da565b005b6101916105f2565b005b6101ad60048036038101906101a8919061188b565b610618565b005b6101c960048036038101906101c4919061188b565b610678565b005b6101e560048036038101906101e09190611796565b610698565b6040516101f29190611804565b60405180910390f35b610215600480360381019061021091906118de565b61074a565b604051610222919061191a565b60405180910390f35b610233610802565b604051610240919061173e565b60405180910390f35b610263600480360381019061025e9190611961565b610894565b005b61027f600480360381019061027a9190611ad6565b6108aa565b005b61029b60048036038101906102969190611796565b61090c565b6040516102a8919061173e565b60405180910390f35b6102cb60048036038101906102c69190611b59565b6109b3565b6040516102d8919061168a565b60405180910390f35b60007f80ac58cd000000000000000000000000000000000000000000000000000000007bffffffffffffffffffffffffffffffffffffffffffffffffffffffff1916827bffffffffffffffffffffffffffffffffffffffffffffffffffffffff191614806103ac57507f5b5e139f000000000000000000000000000000000000000000000000000000007bffffffffffffffffffffffffffffffffffffffffffffffffffffffff1916827bffffffffffffffffffffffffffffffffffffffffffffffffffffffff1916145b806103bc57506103bb82610a47565b5b9050919050565b6060600080546103d290611bc8565b80601f01602080910402602001604051908101604052809291908181526020018280546103fe90611bc8565b801561044b5780601f106104205761010080835404028352916020019161044b565b820191906000526020600020905b81548152906001019060200180831161042e57829003601f168201915b5050505050905090565b600061046082610ab1565b61049f576040517f08c379a000000000000000000000000000000000000000000000000000000000815260040161049690611c6c565b60405180910390fd5b6004600083815260200190815260200160002060009054906101000a900473ffffffffffffffffffffffffffffffffffffffff169050919050565b60006104e582610698565b90508073ffffffffffffffffffffffffffffffffffffffff168373ffffffffffffffffffffffffffffffffffffffff161415610556576040517f08c379a000000000000000000000000000000000000000000000000000000000815260040161054d90611cfe565b60405180910390fd5b8073ffffffffffffffffffffffffffffffffffffffff16610575610b1d565b73ffffffffffffffffffffffffffffffffffffffff1614806105a457506105a38161059e610b1d565b6109b3565b5b6105e3576040517f08c379a00000000000000000000000000000000000000000000000000000000081526004016105da90611d90565b60405180910390fd5b6105ed8383610b25565b505050565b6006600081548092919061060590611ddf565b919050555061061633600654610bde565b565b610629610623610b1d565b82610dac565b610668576040517f08c379a000000000000000000000000000000000000000000000000000000000815260040161065f90611e9a565b60405180910390fd5b610673838383610e8a565b505050565b610693838383604051806020016040528060008152506108aa565b505050565b6000806002600084815260200190815260200160002060009054906101000a900473ffffffffffffffffffffffffffffffffffffffff169050600073ffffffffffffffffffffffffffffffffffffffff168173ffffffffffffffffffffffffffffffffffffffff161415610741576040517f08c379a000000000000000000000000000000000000000000000000000000000815260040161073890611f2c565b60405180910390fd5b80915050919050565b60008073ffffffffffffffffffffffffffffffffffffffff168273ffffffffffffffffffffffffffffffffffffffff1614156107bb576040517f08c379a00000000000000000000000000000000000000000000000000000000081526004016107b290611fbe565b60405180910390fd5b600360008373ffffffffffffffffffffffffffffffffffffffff1673ffffffffffffffffffffffffffffffffffffffff168152602001908152602001600020549050919050565b60606001805461081190611bc8565b80601f016020809104026020016040519081016040528092919081815260200182805461083d90611bc8565b801561088a5780601f1061085f5761010080835404028352916020019161088a565b820191906000526020600020905b81548152906001019060200180831161086d57829003601f168201915b5050505050905090565b6108a661089f610b1d565b83836110e6565b5050565b6108bb6108b5610b1d565b83610dac565b6108fa576040517f08c379a00000000000000000000000000000000000000000000000000000000081526004016108f190611e9a565b60405180910390fd5b61090684848484611253565b50505050565b606061091782610ab1565b610956576040517f08c379a000000000000000000000000000000000000000000000000000000000815260040161094d90612050565b60405180910390fd5b60006109606112af565b9050600081511161098057604051806020016040528060008152506109ab565b8061098a846112c6565b60405160200161099b9291906120ac565b6040516020818303038152906040525b915050919050565b6000600560008473ffffffffffffffffffffffffffffffffffffffff1673ffffffffffffffffffffffffffffffffffffffff16815260200190815260200160002060008373ffffffffffffffffffffffffffffffffffffffff1673ffffffffffffffffffffffffffffffffffffffff16815260200190815260200160002060009054906101000a900460ff16905092915050565b60007f01ffc9a7000000000000000000000000000000000000000000000000000000007bffffffffffffffffffffffffffffffffffffffffffffffffffffffff1916827bffffffffffffffffffffffffffffffffffffffffffffffffffffffff1916149050919050565b60008073ffffffffffffffffffffffffffffffffffffffff166002600084815260200190815260200160002060009054906101000a900473ffffffffffffffffffffffffffffffffffffffff1673ffffffffffffffffffffffffffffffffffffffff1614159050919050565b600033905090565b816004600083815260200190815260200160002060006101000a81548173ffffffffffffffffffffffffffffffffffffffff021916908373ffffffffffffffffffffffffffffffffffffffff160217905550808273ffffffffffffffffffffffffffffffffffffffff16610b9883610698565b73ffffffffffffffffffffffffffffffffffffffff167f8c5be1e5ebec7d5bd14f71427d1e84f3dd0314c0f7b2291e5b200ac8c7c3b92560405160405180910390a45050565b600073ffffffffffffffffffffffffffffffffffffffff168273ffffffffffffffffffffffffffffffffffffffff161415610c4e576040517f08c379a0000000000000000000000000000000000000000000000000000000008152600401610c459061211c565b60405180910390fd5b610c5781610ab1565b15610c97576040517f08c379a0000000000000000000000000000000000000000000000000000000008152600401610c8e90612188565b60405180910390fd5b610ca360008383611427565b6001600360008473ffffffffffffffffffffffffffffffffffffffff1673ffffffffffffffffffffffffffffffffffffffff1681526020019081526020016000206000828254610cf391906121a8565b92505081905550816002600083815260200190815260200160002060006101000a81548173ffffffffffffffffffffffffffffffffffffffff021916908373ffffffffffffffffffffffffffffffffffffffff160217905550808273ffffffffffffffffffffffffffffffffffffffff16600073ffffffffffffffffffffffffffffffffffffffff167fddf252ad1be2c89b69c2b068fc378daa952ba7f163c4a11628f55a4df523b3ef60405160405180910390a45050565b6000610db782610ab1565b610df6576040517f08c379a0000000000000000000000000000000000000000000000000000000008152600401610ded90612270565b60405180910390fd5b6000610e0183610698565b90508073ffffffffffffffffffffffffffffffffffffffff168473ffffffffffffffffffffffffffffffffffffffff161480610e7057508373ffffffffffffffffffffffffffffffffffffffff16610e5884610455565b73ffffffffffffffffffffffffffffffffffffffff16145b80610e815750610e8081856109b3565b5b91505092915050565b8273ffffffffffffffffffffffffffffffffffffffff16610eaa82610698565b73ffffffffffffffffffffffffffffffffffffffff1614610f00576040517f08c379a0000000000000000000000000000000000000000000000000000000008152600401610ef790612302565b60405180910390fd5b600073ffffffffffffffffffffffffffffffffffffffff168273ffffffffffffffffffffffffffffffffffffffff161415610f70576040517f08c379a0000000000000000000000000000000000000000000000000000000008152600401610f6790612394565b60405180910390fd5b610f7b838383611427565b610f86600082610b25565b6001600360008573ffffffffffffffffffffffffffffffffffffffff1673ffffffffffffffffffffffffffffffffffffffff1681526020019081526020016000206000828254610fd691906123b4565b925050819055506001600360008473ffffffffffffffffffffffffffffffffffffffff1673ffffffffffffffffffffffffffffffffffffffff168152602001908152602001600020600082825461102d91906121a8565b92505081905550816002600083815260200190815260200160002060006101000a81548173ffffffffffffffffffffffffffffffffffffffff021916908373ffffffffffffffffffffffffffffffffffffffff160217905550808273ffffffffffffffffffffffffffffffffffffffff168473ffffffffffffffffffffffffffffffffffffffff167fddf252ad1be2c89b69c2b068fc378daa952ba7f163c4a11628f55a4df523b3ef60405160405180910390a4505050565b8173ffffffffffffffffffffffffffffffffffffffff168373ffffffffffffffffffffffffffffffffffffffff161415611155576040517f08c379a000000000000000000000000000000000000000000000000000000000815260040161114c90612434565b60405180910390fd5b80600560008573ffffffffffffffffffffffffffffffffffffffff1673ffffffffffffffffffffffffffffffffffffffff16815260200190815260200160002060008473ffffffffffffffffffffffffffffffffffffffff1673ffffffffffffffffffffffffffffffffffffffff16815260200190815260200160002060006101000a81548160ff0219169083151502179055508173ffffffffffffffffffffffffffffffffffffffff168373ffffffffffffffffffffffffffffffffffffffff167f17307eab39ab6107e8899845ad3d59bd9653f200f220920489ca2b5937696c3183604051611246919061168a565b60405180910390a3505050565b61125e848484610e8a565b61126a8484848461142c565b6112a9576040517f08c379a00000000000000000000000000000000000000000000000000000000081526004016112a0906124c6565b60405180910390fd5b50505050565b606060405180602001604052806000815250905090565b6060600082141561130e576040518060400160405280600181526020017f30000000000000000000000000000000000000000000000000000000000000008152509050611422565b600082905060005b6000821461134057808061132990611ddf565b915050600a826113399190612515565b9150611316565b60008167ffffffffffffffff81111561135c5761135b6119ab565b5b6040519080825280601f01601f19166020018201604052801561138e5781602001600182028036833780820191505090505b5090505b6000851461141b576001826113a791906123b4565b9150600a856113b69190612546565b60306113c291906121a8565b60f81b8183815181106113d8576113d7612577565b5b60200101907effffffffffffffffffffffffffffffffffffffffffffffffffffffffffffff1916908160001a905350600a856114149190612515565b9450611392565b8093505050505b919050565b505050565b600061144d8473ffffffffffffffffffffffffffffffffffffffff166115c3565b156115b6578373ffffffffffffffffffffffffffffffffffffffff1663150b7a02611476610b1d565b8786866040518563ffffffff1660e01b815260040161149894939291906125fb565b602060405180830381600087803b1580156114b257600080fd5b505af19250505080156114e357506040513d601f19601f820116820180604052508101906114e0919061265c565b60015b611566573d8060008114611513576040519150601f19603f3d011682016040523d82523d6000602084013e611518565b606091505b5060008151141561155e576040517f08c379a0000000000000000000000000000000000000000000000000000000008152600401611555906124c6565b60405180910390fd5b805181602001fd5b63150b7a0260e01b7bffffffffffffffffffffffffffffffffffffffffffffffffffffffff1916817bffffffffffffffffffffffffffffffffffffffffffffffffffffffff1916149150506115bb565b600190505b949350505050565b600080823b905060008111915050919050565b6000604051905090565b600080fd5b600080fd5b60007fffffffff0000000000000000000000000000000000000000000000000000000082169050919050565b61161f816115ea565b811461162a57600080fd5b50565b60008135905061163c81611616565b92915050565b600060208284031215611658576116576115e0565b5b60006116668482850161162d565b91505092915050565b60008115159050919050565b6116848161166f565b82525050565b600060208201905061169f600083018461167b565b92915050565b600081519050919050565b600082825260208201905092915050565b60005b838110156116df5780820151818401526020810190506116c4565b838111156116ee576000848401525b50505050565b6000601f19601f8301169050919050565b6000611710826116a5565b61171a81856116b0565b935061172a8185602086016116c1565b611733816116f4565b840191505092915050565b600060208201905081810360008301526117588184611705565b905092915050565b6000819050919050565b61177381611760565b811461177e57600080fd5b50565b6000813590506117908161176a565b92915050565b6000602082840312156117ac576117ab6115e0565b5b60006117ba84828501611781565b91505092915050565b600073ffffffffffffffffffffffffffffffffffffffff82169050919050565b60006117ee826117c3565b9050919050565b6117fe816117e3565b82525050565b600060208201905061181960008301846117f5565b92915050565b611828816117e3565b811461183357600080fd5b50565b6000813590506118458161181f565b92915050565b60008060408385031215611862576118616115e0565b5b600061187085828601611836565b925050602061188185828601611781565b9150509250929050565b6000806000606084860312156118a4576118a36115e0565b5b60006118b286828701611836565b93505060206118c386828701611836565b92505060406118d486828701611781565b9150509250925092565b6000602082840312156118f4576118f36115e0565b5b600061190284828501611836565b91505092915050565b61191481611760565b82525050565b600060208201905061192f600083018461190b565b92915050565b61193e8161166f565b811461194957600080fd5b50565b60008135905061195b81611935565b92915050565b60008060408385031215611978576119776115e0565b5b600061198685828601611836565b92505060206119978582860161194c565b9150509250929050565b600080fd5b600080fd5b7f4e487b7100000000000000000000000000000000000000000000000000000000600052604160045260246000fd5b6119e3826116f4565b810181811067ffffffffffffffff82111715611a0257611a016119ab565b5b80604052505050565b6000611a156115d6565b9050611a2182826119da565b919050565b600067ffffffffffffffff821115611a4157611a406119ab565b5b611a4a826116f4565b9050602081019050919050565b82818337600083830152505050565b6000611a79611a7484611a26565b611a0b565b905082815260208101848484011115611a9557611a946119a6565b5b611aa0848285611a57565b509392505050565b600082601f830112611abd57611abc6119a1565b5b8135611acd848260208601611a66565b91505092915050565b60008060008060808587031215611af057611aef6115e0565b5b6000611afe87828801611836565b9450506020611b0f87828801611836565b9350506040611b2087828801611781565b925050606085013567ffffffffffffffff811115611b4157611b406115e5565b5b611b4d87828801611aa8565b91505092959194509250565b60008060408385031215611b7057611b6f6115e0565b5b6000611b7e85828601611836565b9250506020611b8f85828601611836565b9150509250929050565b7f4e487b7100000000000000000000000000000000000000000000000000000000600052602260045260246000fd5b60006002820490506001821680611be057607f821691505b60208210811415611bf457611bf3611b99565b5b50919050565b7f4552433732313a20617070726f76656420717565727920666f72206e6f6e657860008201527f697374656e7420746f6b656e0000000000000000000000000000000000000000602082015250565b6000611c56602c836116b0565b9150611c6182611bfa565b604082019050919050565b60006020820190508181036000830152611c8581611c49565b9050919050565b7f4552433732313a20617070726f76616c20746f2063757272656e74206f776e6560008201527f7200000000000000000000000000000000000000000000000000000000000000602082015250565b6000611ce86021836116b0565b9150611cf382611c8c565b604082019050919050565b60006020820190508181036000830152611d1781611cdb565b9050919050565b7f4552433732313a20617070726f76652063616c6c6572206973206e6f74206f7760008201527f6e6572206e6f7220617070726f76656420666f7220616c6c0000000000000000602082015250565b6000611d7a6038836116b0565b9150611d8582611d1e565b604082019050919050565b60006020820190508181036000830152611da981611d6d565b9050919050565b7f4e487b7100000000000000000000000000000000000000000000000000000000600052601160045260246000fd5b6000611dea82611760565b91507fffffffffffffffffffffffffffffffffffffffffffffffffffffffffffffffff821415611e1d57611e1c611db0565b5b600182019050919050565b7f4552433732313a207472616e736665722063616c6c6572206973206e6f74206f60008201527f776e6572206e6f7220617070726f766564000000000000000000000000000000602082015250565b6000611e846031836116b0565b9150611e8f82611e28565b604082019050919050565b60006020820190508181036000830152611eb381611e77565b9050919050565b7f4552433732313a206f776e657220717565727920666f72206e6f6e657869737460008201527f656e7420746f6b656e0000000000000000000000000000000000000000000000602082015250565b6000611f166029836116b0565b9150611f2182611eba565b604082019050919050565b60006020820190508181036000830152611f4581611f09565b9050919050565b7f4552433732313a2062616c616e636520717565727920666f7220746865207a6560008201527f726f206164647265737300000000000000000000000000000000000000000000602082015250565b6000611fa8602a836116b0565b9150611fb382611f4c565b604082019050919050565b60006020820190508181036000830152611fd781611f9b565b9050919050565b7f4552433732314d657461646174613a2055524920717565727920666f72206e6f60008201527f6e6578697374656e7420746f6b656e0000000000000000000000000000000000602082015250565b600061203a602f836116b0565b915061204582611fde565b604082019050919050565b600060208201905081810360008301526120698161202d565b9050919050565b600081905092915050565b6000612086826116a5565b6120908185612070565b93506120a08185602086016116c1565b80840191505092915050565b60006120b8828561207b565b91506120c4828461207b565b91508190509392505050565b7f4552433732313a206d696e7420746f20746865207a65726f2061646472657373600082015250565b60006121066020836116b0565b9150612111826120d0565b602082019050919050565b60006020820190508181036000830152612135816120f9565b9050919050565b7f4552433732313a20746f6b656e20616c7265616479206d696e74656400000000600082015250565b6000612172601c836116b0565b915061217d8261213c565b602082019050919050565b600060208201905081810360008301526121a181612165565b9050919050565b60006121b382611760565b91506121be83611760565b9250827fffffffffffffffffffffffffffffffffffffffffffffffffffffffffffffffff038211156121f3576121f2611db0565b5b828201905092915050565b7f4552433732313a206f70657261746f7220717565727920666f72206e6f6e657860008201527f697374656e7420746f6b656e0000000000000000000000000000000000000000602082015250565b600061225a602c836116b0565b9150612265826121fe565b604082019050919050565b600060208201905081810360008301526122898161224d565b9050919050565b7f4552433732313a207472616e73666572206f6620746f6b656e2074686174206960008201527f73206e6f74206f776e0000000000000000000000000000000000000000000000602082015250565b60006122ec6029836116b0565b91506122f782612290565b604082019050919050565b6000602082019050818103600083015261231b816122df565b9050919050565b7f4552433732313a207472616e7366657220746f20746865207a65726f2061646460008201527f7265737300000000000000000000000000000000000000000000000000000000602082015250565b600061237e6024836116b0565b915061238982612322565b604082019050919050565b600060208201905081810360008301526123ad81612371565b9050919050565b60006123bf82611760565b91506123ca83611760565b9250828210156123dd576123dc611db0565b5b828203905092915050565b7f4552433732313a20617070726f766520746f2063616c6c657200000000000000600082015250565b600061241e6019836116b0565b9150612429826123e8565b602082019050919050565b6000602082019050818103600083015261244d81612411565b9050919050565b7f4552433732313a207472616e7366657220746f206e6f6e20455243373231526560008201527f63656976657220696d706c656d656e7465720000000000000000000000000000602082015250565b60006124b06032836116b0565b91506124bb82612454565b604082019050919050565b600060208201905081810360008301526124df816124a3565b9050919050565b7f4e487b7100000000000000000000000000000000000000000000000000000000600052601260045260246000fd5b600061252082611760565b915061252b83611760565b92508261253b5761253a6124e6565b5b828204905092915050565b600061255182611760565b915061255c83611760565b92508261256c5761256b6124e6565b5b828206905092915050565b7f4e487b7100000000000000000000000000000000000000000000000000000000600052603260045260246000fd5b600081519050919050565b600082825260208201905092915050565b60006125cd826125a6565b6125d781856125b1565b93506125e78185602086016116c1565b6125f0816116f4565b840191505092915050565b600060808201905061261060008301876117f5565b61261d60208301866117f5565b61262a604083018561190b565b818103606083015261263c81846125c2565b905095945050505050565b60008151905061265681611616565b92915050565b600060208284031215612672576126716115e0565b5b600061268084828501612647565b9150509291505056fea2646970667358221220b4ce873c4434d978a99644a81c346f8ee58bc35f666e2db55e79c513e86a7d7664736f6c63430008090033",
  "linkReferences": {},
  "deployedLinkReferences": {}
}